:060000000A128A11122809
:10000800FE00030E83120313D3000408D4000A0869
:10001800D5007F08D6000A128A11DC2D0A128A112F
:10002800152883132030840053300A128A11E122E4
:100038000A128A11A0308400DE300A128A11E122E5
:100048000A128A11831790308400E0300A128A114C
:10005800E1220A128A1183010A128A113328F03028
:1000680083160313880086010A128A1109270A12C7
:100078008A110A128A117C270A128A1180300A1200
:100088008A1168240A128A11633083120313DA0072
:100098008030DB000A128A11A5270A128A110A1277
:1000A8008A115D210A128A1183120313A7003030C6
:1000B8002702031C60286128DA283A30270203182F
:1000C80066286728DA2883160313DE01DF01831602
:1000D80003135E08483E8400831203132708831322
:1000E80080000A128A115D210A128A1183120313F1
:1000F800A700013083160313DE070318DF0A003058
:10010800DF075F08803AFF0080307F02031D8E28DA
:100118000A305E02031C912892286B28831203136D
:10012800D2012A302706031D9A289B28CF28803021
:100138000A128A1168240A128A116330831203137F
:10014800DA008030DB000A128A11A5270A128A1108
:10015800073083120313EB007C30EA00EA0BB22865
:10016800EB0BB228000080300A128A1168240A12A8
:100178008A11483083120313DA000030DB000A12B8
:100188008A11A5270A128A1148300A128A115322A5
:100198000A128A115A2923302706031DD428D52884
:1001A800DA280A128A11F3270A128A112A308312CE
:1001B80003132706031DE128E22836292908031915
:1001C800E628E728FE280A128A11D5220A128A117F
:1001D80080300A128A1168240A128A118030831228
:1001E8000313DA008030DB000A128A11A5270A12ED
:1001F8008A11362928080319022903291C29723073
:10020800D90048300A128A1113250A128A110A12D3
:100218008A11E9220A128A11223083120313DA00A2
:100228008030DB000A128A11A5270A128A113629A2
:100238006B30D7008030D8000A128A11CD270A12F5
:100248008A1180300A128A1168240A128A117930B8
:1002580083120313DA008030DB000A128A11A52703
:100268000A128A112330831203132706031D3D291E
:100278003E2953280A128A11F3270A128A110A12F0
:100288008A11E9220A128A1180300A128A11682416
:100298000A128A119C3083120313DA008030DB00C3
:1002A8000A128A11A5270A128A1153280A128A11DA
:1002B8001228831203130814881108118810081EC5
:1002C8006629672976296E29AA300A128A11C52259
:1002D8000A128A1183120313081A732974296829C8
:1002E8003130522A881E79297A2989298129AA3008
:1002F8000A128A11C5220A128A1183120313881A54
:10030800862987297B293230522A881F8C298D29F2
:100318009C299429AA300A128A11C5220A128A1124
:1003280083120313881B99299A298E293330522A5C
:100338008814881108110810081EA329A429B329B4
:10034800AB29AA300A128A11C5220A128A1183120D
:100358000313081AB029B129A5293430522A881E56
:10036800B629B729C629BE29AA300A128A11C52278
:100378000A128A1183120313881AC329C429B829B7
:100388003530522A881FC929CA29D929D129AA3022
:100398000A128A11C5220A128A1183120313881BB2
:1003A800D629D729CB293630522A08158811881022
:1003B8000810081EE029E129F029E829AA300A12C4
:1003C8008A11C5220A128A1183120313081AED2909
:1003D800EE29E2293730522A881EF329F429032A04
:1003E800FB29AA300A128A11C5220A128A1183121D
:1003F8000313881A002A012AF5293830522A881F3F
:10040800062A072A162A0E2AAA300A128A11C52293
:100418000A128A1183120313881B132A142A082A22
:100428003930522A8815081188100810081E1D2A0C
:100438001E2A2D2A252AAA300A128A11C5220A1232
:100448008A1183120313081A2A2A2B2A1F2A2A30F0
:10045800522A881E302A312A402A382AAA300A12FB
:100468008A11C5220A128A1183120313881A3D2A97
:100478003E2A322A3030522A881F432A442A5D29CC
:100488004B2AAA300A128A11C5220A128A1183122B
:100498000313881B502A512A452A23300800831247
:1004A8000313D900A030D7008030D8000A128A116F
:1004B800CD270A128A11831203135908D700003076
:1004C800D8000A128A11CD270A128A11983083128D
:1004D8000313D7008030D8000A128A11CD270A12D8
:1004E8008A11080083120313E6006408E700862ACD
:1004F8006730DF006508E00066080A128A11C42622
:100508000A128A1183120313670884000A128A11D7
:100518000A230A128A11003A031D932A942A7C2A74
:10052800E401E5010800F3007308F2009F2A013096
:10053800FF007F08F3077308840083130008031D76
:10054800A62AA72A9B2A72087302F000F101F01B61
:10055800F1030800F2007208840083130008700693
:10056800031DB72AB82ABA2A7208C42A7208840056
:100578000130F2070008031DC22AC32AAF2A00303F
:10058800080083120313E9007030E8006908E400EA
:100598006830E50000300A128A1176220A128A11A0
:1005A8000800873083120313D7008030D8000A125E
:1005B8008A11CD270A128A11080064008001840A72
:1005C8000406031900340406E22A01300A128A11CB
:0805D80068240A128A110800D0
:10060000FF1B0A2B83137F1883170008840A031922
:10061000FF0A080003308A000408840A82070034B5
:10062000413454342B3443344E344D3449343D3406
:1006300032342C3432342C3430342C3430342C34A6
:10064000303400345234653463346534693476347C
:1006500065346434203453344D3453343A342034C4
:1006600000344D3465347334733461346734653425
:100670002034533465346E3474340034413454348B
:100680002B3443344D34473446343D3431340D3407
:1006900000345234453443344534493456344534B7
:1006A00053344D3453340034413454342B344334B4
:1006B0004D34473453343D342234003441345434BF
:1006C0002B3443344D34473446343D3431340034D4
:1006D000413454342B3443344D34473452343D3454
:1006E00031340034433441344C344C3449344E3486
:1006F000473400344134543444344C340D340A34D7
:100700000034483465346C346C346F342034003435
:10071000523445344434493441344C340034413447
:100720004E34533457344534523400344134543405
:1007300041340D340A3400344134543448340D34D7
:100740000A340034523449344E34473400343B3494
:100750000D340A34003445344E34443400344134CA
:1007600054344434003422340D340034413454348D
:100770000034073400341A34003483120313D900D0
:1007800006145908D70004300310D70CFF3E031D90
:10079000C42B5718CC2BD02B831203130615D32B45
:1007A0008312031306115908D70005300310D70C24
:1007B000FF3E031DD62B5718DE2BE22B83120313AB
:1007C0008615E52B8312031386115908D7000630CE
:1007D0000310D70CFF3E031DE82B5718F02BF42B0A
:1007E000831203130616F72B8312031306125908FC
:1007F000D70007300310D70CFF3E031DFA2B571804
:10080000022C062C831203138616092C8312031361
:1008100086128614073083120313D8007C30D70069
:10082000D70B102CD80B102C00008312031386104A
:1008300059181B2C1F2C831203130615222C83120C
:10084000031306115908D70001300310D70CFF3EDF
:10085000031D252C57182D2C312C831203138615BC
:10086000342C8312031386115908D7000230031069
:10087000D70CFF3E031D372C57183F2C432C8312F7
:1008800003130616462C8312031306125908D700C9
:1008900003300310D70CFF3E031D492C5718512C71
:1008A000552C831203138616582C831203138612B9
:1008B0008614073083120313D8007C30D700D70B7F
:1008C0005F2CD80B5F2C00008312031386100800E6
:1008D00083120313D90006105908D70004300310FF
:1008E000D70CFF3E031D6F2C5718772C7B2C8312DF
:1008F000031306157E2C8312031306115908D70023
:1009000005300310D70CFF3E031D812C5718892C8E
:100910008D2C831203138615902C831203138611DA
:100920005908D70006300310D70CFF3E031D932C47
:1009300057189B2C9F2C831203130616A22C83128C
:10094000031306125908D70007300310D70CFF3ED7
:10095000031DA52C5718AD2CB12C8312031386163A
:10096000B42C8312031386128614073083120313E8
:10097000D8007C30D700D70BBB2CD80BBB2C000089
:100980008312031386105918C62CCA2C8312031322
:100990000615CD2C8312031306115908D700013018
:1009A0000310D70CFF3E031DD02C5718D82CDC2C7D
:1009B000831203138615DF2C831203138611590843
:1009C000D70002300310D70CFF3E031DE22C57184E
:1009D000EA2CEE2C831203130616F12C8312031358
:1009E00006125908D70003300310D70CFF3E031D31
:1009F000F42C5718FC2C002D831203138616032D9C
:100A00008312031386128614073083120313D8004F
:100A10007C30D700D70B0A2DD80B0A2D000083128B
:100A200003138610080083120313DD002F30D70054
:100A30008030D8000A128A11CD270A128A111A3082
:100A400083120313DC005E30DB006D30DA00DA0B5A
:100A5000272DDB0B272DDC0B272D2E2D4530831268
:100A60000313D7008030D8000A128A11CD270A124A
:100A70008A11831203135D08D7000030D8000A12D0
:100A80008A11CD270A128A11A43083120313D700CA
:100A90008030D8000A128A11CD270A128A111A3022
:100AA00083120313DC005E30DB006D30DA00DA0BFA
:100AB000572DDB0B572DDC0B572D5E2D83120313A7
:100AC0005908D7000030031D8030D8000A128A115F
:100AD000CD270A128A11AC3083120313D70080305D
:100AE000D8000A128A11CD270A128A11993083126E
:100AF0000313D7008030D8000A128A11CD270A12BA
:100B00008A1108008312031359080319882D892DAF
:100B10008E2D5908031D8D2D8E2D952D57080A12E7
:100B20008A11FF270A128A11DB2D5908093E840019
:100B300083130008DA00840A0008DB005A085B040B
:100B40000319A32DA42DC22D5908093E84000008C5
:100B5000DA00840A0008DB005908023E840000081D
:100B6000DC00840A0008DD005D08803ADE005B08D6
:100B7000803A5E02031DBE2D5A085C020318C12D87
:100B8000C22DDB2D831203135908023E8400831308
:100B90000008DA005908840000085A07DB005B08E7
:100BA0008400570880005908023E84000130800705
:100BB000840A0318800A08008C1EDF2DE02D212EE8
:100BC0001A08FC000A307C06031DE72DE82D142EC0
:100BD0002408293E840083138001A401A5019330D9
:100BE000F0002A300A128A1147270A128A11700867
:100BF0007104031DFC2DFD2D022E83120313A90188
:100C0000A90A212EC030F6002A300A128A117E2647
:100C10000A128A11003A03190E2E0F2E212E83126A
:100C20000313A801A80A212E24082A3E84007C0868
:100C3000831380000130A4070318A50A0030A5071C
:100C4000212E831203135608FF0055088A0054080A
:100C50008400530E8300FE0E7E0E0900F500013065
:100C6000F1020030031CF203F202710A031D3C2E54
:100C7000720A031D3C2E3D2E4E2EF001F1017D2EF9
:100C80000130FF007F08F5070130FF007F08F00703
:100C90000130F1020030031CF203F20275088400F7
:100CA000831300080319552E562E6F2E70088400EA
:100CB000000803195C2E5D2E6F2E71087204031953
:100CC000622E632E6F2E700884000008F3007508F2
:100CD00084000008730603196E2E6F2E402E7008D4
:100CE00084000008F300750884000008F40073080D
:100CF0007402F000F101031CF1030800FB00760808
:100D00000319832E842EC22E76080A128A11972286
:100D10000A128A117108FA007008F900B52E7608D7
:100D2000F0007A08F2007908F1007B080A128A11B3
:100D30002E260A128A1170087104031DA02EA12EFE
:100D4000A32E7B08C32E7608840083130008F700C7
:100D5000F8017708F0007808F1007B08013E0A12DC
:100D60008A11AE220A128A11FB007B080319B92EE0
:100D7000BA2EC22E7B08840083130008031DC12EE7
:100D8000C22E8F2E0030080083120313E3005F0889
:100D900084008313000884000A128A110A230A12AD
:100DA0008A11253A031DD52ED62EF12E0130FF00D3
:100DB0005F0884007F088007A001A10103100030B4
:100DC00003180130A600FF30A200FF30A30001305D
:100DD000FF00831203135F0884007F0883138007DA
:100DE000082F5F088400000884000A128A110A2371
:100DF0000A128A11E100E2016108D7006208D800F6
:100E00006308D9000A128A1182250A128A11E72E74
:100E100008008312031398178316031398161815E6
:100E200081309900181283120313181683160313C6
:100E30008C160B178B17033083120313DB008A30D9
:100E4000DA005530D900D90B232FDA0B232FDB0B17
:100E5000232FA73083120313D7008030D8000A1243
:100E60008A11CD270A128A110D30831203139900BB
:100E7000033083120313DB008A30DA005530D900C7
:100E8000D90B402FDA0B402FDB0B402F0800F4006A
:100E9000512F0130FF007F08F4070130FF007F0869
:100EA000F007700884000A128A110A230A128A11B4
:100EB000F20074088400831300087206031D612F7A
:100EC000622F692F740884000008031D682F692FA2
:100ED000492F700884000A128A110A230A128A1103
:100EE000F200740884000008F30072087302F00036
:100EF000F101031CF103080002300A128A11682470
:100F00000A128A1128300A128A1168240A128A11D8
:100F10000C300A128A1168240A128A1106300A1249
:100F20008A1168240A128A1101300A128A1168246F
:100F30000A128A110D3083120313DB00FB30DA0032
:100F4000DA0BA02FDB0BA02F0800BC2F5B08FF00E3
:100F50005A0884000A128A1100230A128A110A12FE
:100F60008A11BD230A128A11013083120313DA0792
:100F70000318DB0A0030DB07831203135B08FF0052
:100F80005A0884000A128A1100230A128A11003AB0
:100F9000031DCB2FCC2FA62F0800E22F5808FF00EF
:100FA000570884000A128A1100230A128A11990034
:100FB0000C1EDB2FDC2FD82F0130D7070318D80ADF
:100FC0000030D807831203135808FF005708840025
:100FD0000A128A1100230A128A11003A031DF12F06
:100FE000F22FCE2F08008D3083120313D7008030EC
:100FF000D8000A128A11CD270A128A1108000800A7
:02400E00393F38
:00000001FF
